{
  "contractName": "String",
  "abi": [
    {
      "inputs": [
        {
          "internalType": "string",
          "name": "a_text",
          "type": "string"
        },
        {
          "internalType": "string",
          "name": "a_cvv",
          "type": "string"
        },
        {
          "internalType": "string",
          "name": "a_expiry",
          "type": "string"
        }
      ],
      "name": "setter",
      "outputs": [],
      "stateMutability": "nonpayable",
      "type": "function"
    },
    {
      "inputs": [
        {
          "internalType": "uint256",
          "name": "i",
          "type": "uint256"
        }
      ],
      "name": "getter",
      "outputs": [
        {
          "internalType": "string",
          "name": "",
          "type": "string"
        },
        {
          "internalType": "string",
          "name": "",
          "type": "string"
        },
        {
          "internalType": "string",
          "name": "",
          "type": "string"
        }
      ],
      "stateMutability": "view",
      "type": "function",
      "constant": true
    },
    {
      "inputs": [],
      "name": "getLength",
      "outputs": [
        {
          "internalType": "uint256",
          "name": "",
          "type": "uint256"
        }
      ],
      "stateMutability": "view",
      "type": "function",
      "constant": true
    }
  ],
  "bytecode": "0x608060405234801561001057600080fd5b506108fa806100206000396000f3fe608060405234801561001057600080fd5b50600436106100415760003560e01c806394cad55d14610046578063be1c766b14610078578063dfab3f4914610096575b600080fd5b610060600480360381019061005b919061066b565b6100b2565b60405161006f939291906106dc565b60405180910390f35b6100806103ef565b60405161008d9190610728565b60405180910390f35b6100b060048036038101906100ab91906105d4565b6103fb565b005b6060806060600080549050841115610171576040518060400160405280600181526020017f30000000000000000000000000000000000000000000000000000000000000008152506040518060400160405280600181526020017f30000000000000000000000000000000000000000000000000000000000000008152506040518060400160405280600181526020017f30000000000000000000000000000000000000000000000000000000000000008152509250925092506103e8565b600084815481106101ab577f4e487b7100000000000000000000000000000000000000000000000000000000600052603260045260246000fd5b90600052602060002001600185815481106101ef577f4e487b7100000000000000000000000000000000000000000000000000000000600052603260045260246000fd5b9060005260206000200160028681548110610233577f4e487b7100000000000000000000000000000000000000000000000000000000600052603260045260246000fd5b906000526020600020018280546102499061080c565b80601f01602080910402602001604051908101604052809291908181526020018280546102759061080c565b80156102c25780601f10610297576101008083540402835291602001916102c2565b820191906000526020600020905b8154815290600101906020018083116102a557829003601f168201915b505050505092508180546102d59061080c565b80601f01602080910402602001604051908101604052809291908181526020018280546103019061080c565b801561034e5780601f106103235761010080835404028352916020019161034e565b820191906000526020600020905b81548152906001019060200180831161033157829003601f168201915b505050505091508080546103619061080c565b80601f016020809104026020016040519081016040528092919081815260200182805461038d9061080c565b80156103da5780601f106103af576101008083540402835291602001916103da565b820191906000526020600020905b8154815290600101906020018083116103bd57829003601f168201915b505050505090509250925092505b9193909250565b60008080549050905090565b6000839080600181540180825580915050600190039060005260206000200160009091909190915090805190602001906104369291906104b4565b506001829080600181540180825580915050600190039060005260206000200160009091909190915090805190602001906104729291906104b4565b506002819080600181540180825580915050600190039060005260206000200160009091909190915090805190602001906104ae9291906104b4565b50505050565b8280546104c09061080c565b90600052602060002090601f0160209004810192826104e25760008555610529565b82601f106104fb57805160ff1916838001178555610529565b82800160010185558215610529579182015b8281111561052857825182559160200191906001019061050d565b5b509050610536919061053a565b5090565b5b8082111561055357600081600090555060010161053b565b5090565b600061056a61056584610774565b610743565b90508281526020810184848401111561058257600080fd5b61058d8482856107ca565b509392505050565b600082601f8301126105a657600080fd5b81356105b6848260208601610557565b91505092915050565b6000813590506105ce816108ad565b92915050565b6000806000606084860312156105e957600080fd5b600084013567ffffffffffffffff81111561060357600080fd5b61060f86828701610595565b935050602084013567ffffffffffffffff81111561062c57600080fd5b61063886828701610595565b925050604084013567ffffffffffffffff81111561065557600080fd5b61066186828701610595565b9150509250925092565b60006020828403121561067d57600080fd5b600061068b848285016105bf565b91505092915050565b600061069f826107a4565b6106a981856107af565b93506106b98185602086016107d9565b6106c28161089c565b840191505092915050565b6106d6816107c0565b82525050565b600060608201905081810360008301526106f68186610694565b9050818103602083015261070a8185610694565b9050818103604083015261071e8184610694565b9050949350505050565b600060208201905061073d60008301846106cd565b92915050565b6000604051905081810181811067ffffffffffffffff8211171561076a5761076961086d565b5b8060405250919050565b600067ffffffffffffffff82111561078f5761078e61086d565b5b601f19601f8301169050602081019050919050565b600081519050919050565b600082825260208201905092915050565b6000819050919050565b82818337600083830152505050565b60005b838110156107f75780820151818401526020810190506107dc565b83811115610806576000848401525b50505050565b6000600282049050600182168061082457607f821691505b602082108114156108385761083761083e565b5b50919050565b7f4e487b7100000000000000000000000000000000000000000000000000000000600052602260045260246000fd5b7f4e487b7100000000000000000000000000000000000000000000000000000000600052604160045260246000fd5b6000601f19601f8301169050919050565b6108b6816107c0565b81146108c157600080fd5b5056fea264697066735822122059480437cbea979141b9c4664737959f12072b41d21112539474a090ecdbeca964736f6c63430008000033",
  "immutableReferences": {},
  "source": "// SPDX-License-Identifier: GPL-3.0-or-later\r\n\r\npragma solidity ^0.8.0;\r\n\r\n\r\ncontract String  \r\n{\r\n    string[] private cardnumber;\r\n    string[] private cvv;\r\n    string[] private expiry;\r\n\r\n    function setter(string memory a_text, string memory a_cvv, string memory a_expiry) public \r\n    {\r\n        cardnumber.push(a_text);\r\n        cvv.push(a_cvv);\r\n        expiry.push(a_expiry);\r\n    }\r\n\r\n    function getter(uint i) public view returns(string memory, string memory, string memory)  \r\n    {\r\n        if(i>cardnumber.length)\r\n        {\r\n            return (\"0\",\"0\",\"0\");\r\n        }\r\n        return (cardnumber[i], cvv[i], expiry[i]);\r\n    }\r\n\r\n    function getLength() public view returns(uint)\r\n    {\r\n        return cardnumber.length;\r\n    }\r\n}",
  "sourcePath": "C:\\Users\\91968\\Desktop\\Project1\\frontend\\Project\\contracts\\String.sol",
  "compiler": {
    "name": "solc",
    "version": "0.8.0+commit.c7dfd78e.Emscripten.clang"
  },
  "schemaVersion": "3.4.14",
  "updatedAt": "2023-06-27T12:48:29.024Z",
  "networkType": "ethereum",
  "devdoc": {
    "kind": "dev",
    "methods": {},
    "version": 1
  },
  "userdoc": {
    "kind": "user",
    "methods": {},
    "version": 1
  }
}